:020000040800F2
:10000000D00D0020450100085D16000827120008E9
:1000100079150008CD0C0008192D0008000000001B
:10002000000000000000000000000000471A000867
:100030007D0E0008000000000D170008591B000885
:100040005F0100085F0100085F0100085F01000810
:100050005F0100085F0100085F0100085F01000800
:100060005F0100085F0100085F0100085F010008F0
:100070005F0100085F0100085F0100085F010008E0
:100080005F0100085F0100085F0100085F010008D0
:100090005F0100085F0100085F0100085F010008C0
:1000A0005F0100085F0100085F0100085F010008B0
:1000B0005D1E00085F010008A51F00085F01000821
:1000C0005F0100085F0100085F0100085F01000890
:1000D0005F010008B52800085F0100085F01000803
:1000E0005F0100085F0100085F0100085F01000870
:1000F0005F0100085F0100085F0100085F01000860
:100100005F0100085F0100085F0100085F0100084F
:100110005F0100085F0100085F0100085F0100083F
:100120005F0100085F0100085F0100085F0100082F
:10013000DFF80CD000F000FC004800471D3100083B
:10014000D00D00200648804706480047FEE7FEE73E
:10015000FEE7FEE7FEE7FEE7FEE7FEE7FEE7FEE777
:10016000811B000831010008421C10F8011B002906
:10017000FBD1801A7047F0B480EA0102D40F42002C
:10018000B2EB410F02D20246084611464A0042D065
:10019000C30DDDB2C1F3C752AD1A202D35DAC1F35C
:1001A000160141F4000204B15242C5F1200602FAE0
:1001B00006F12A411044B3EBD05F23D0C4B1012D26
:1001C000A0EBC35009DCF0BC4FF0004202EAC3527E
:1001D000DBB200F5000000F0F5BA400000F18070DD
:1001E00000EBC350A0F1807040EAD170490009E0F3
:1001F000490841EAC071A0EBC35000F50000400877
:1002000000EBC350F0BC00F0D4BA6142012202EB13
:100210004101001BF6E7F0BC704781F00041AAE7FE
:1002200080F00040A7E780EA010210B502F0004329
:10023000400022D04A001FD0010E01EB1261C0F332
:100240005600C2F3560240F4000042F40002A0FB44
:10025000022000047F39140400D0401C50EA1240F0
:1002600001D44000491EC2B20C0604EBD010401C61
:100270004008802A02D003E0002010BD20F00100D9
:10028000002900DA0020184310BD30B480EA0102D2
:1002900002F0004530F0004221F0004013D090B150
:1002A000C30DD40DC2F31601C0F31600E41A41F4D5
:1002B000000140F400027D34914201D3641C00E04F
:1002C0004900002C02DA30BC002070474FF40000D7
:1002D0000023914201D3891A034340084FEA4101A8
:1002E000F7D151B1914202D14FF0004105E002D265
:1002F0004FF0010101E06FF0010103EBC45028440D
:1003000030BC00F056BA2DE9FE4F804681EA03006A
:10031000C00F0C46009021F0004123F00045B8EBDF
:100320000200A94105D24046214690461C460B4694
:10033000024623F00040104347D0270DC7F30A00C0
:10034000C3F30A510290401A019040286BDAC3F3BC
:10035000130040F4801B0098924620B10023D2EB9A
:10036000030A63EB0B0B01985946C0F1400250465B
:1003700000F0EEF906460D4650465946019A00F047
:1003800006FA10EB08006141002487EA115284EA62
:10039000E7731A4340D0009A62B3019A012A4FEAE8
:1003A000075215DC001B61EB02014FF0004202EA2C
:1003B0000752CDE90042001C41F5801132462B4620
:1003C00000F03DFA03B0BDE8F08F40462146F9E762
:1003D000001B61EB0201001C41F5801300185B411A
:1003E0002018A2F5001747EB030140EAD570B619B3
:1003F0006D4111E06D084FEA360645EAC0754FEAD7
:100400000752001B61EB0201001C41F580114908F5
:100410004FEA30000019514132462B4603B0BDE887
:10042000F04F00F0FDB90098012240000023D0EB0E
:10043000020263EBE073009821464FEAE074B8EBE8
:10044000000061EB0401E9E783F000435BE781F022
:10045000004158E72DE9FE4F81EA030404F000440F
:1004600021F0004100944FF0000B23F0004350EACC
:1004700001045ED052EA03045BD0C3F30A54C1F313
:100480000A552C44A4F2F3340194A0FB0254C1F3A6
:10049000130141F48011C3F3130343F4801301FBF0
:1004A000024400FB034E840A970A44EA815447EA57
:1004B0008357A4FB076802958D0A05FB07854FEA61
:1004C000932C04FB0C542705029D4FEA065847EA7B
:1004D0001637B5EB08056EEB070C870E920E47EA50
:1004E000811742EA8312A7FB0201B6EB0B0164EB12
:1004F00000042B0D43EA0C335E1844EB1C50DA4623
:100500005146E7FB0201C5F313044FEA0B3343EAFC
:1005100014534FEA0432019C43EA0603A4F10C048D
:100520000294009CCDE900B400F089F903B0BDE865
:10053000F08F00200146F9E72DE9F04D81EA030430
:1005400004F0004B21F0004514464FF0000A23F060
:10055000004150EA050220D054EA01021DD0C5F343
:100560000A570246C5F31303C1F31300C1F30A5639
:1005700040F4801543F48013A7EB0608101BD64601
:1005800008F2FD3873EB050002D308F1010801E021
:1005900092185B41B8F1000F03DA00200146BDE874
:1005A000F08D00204FF48011064684460EE0171BA4
:1005B00073EB050705D3121B63EB050306434CEAF7
:1005C000010C49084FEA300092185B4150EA0107DC
:1005D000EDD152EA030012D082EA040083EA050159
:1005E000084305D0101BAB4106D20122002306E0D0
:1005F00000224FF0004302E06FF0010253101AEBAB
:1006000006004CEB085110EB0A0041EB0B01BDE872
:10061000F04D00F005B9C10F80EAE0700844CA0748
:100620009623002100F0CEB896230022114600F058
:10063000C9B80EB5C10F80EAE0700844CA070021AE
:1006400040F233438DE80E000A460B4600F0F7F8FF
:1006500003B000BD0EB540F2334102910021CDE957
:1006600000110A460B4600F0EAF803B000BD00F0A6
:10067000004220F00040C10DC0F3160040F400001D
:100680007F2901DA00207047962903DCC1F1960129
:10069000C84001E096398840002AF4D040427047B3
:1006A00020F00040C10DC0F3160040F400007F2987
:1006B00001DA00207047962903DCC1F19601C84099
:1006C000704796398840704700F0004230F0004093
:1006D0000AD0C10D01F56071C0F3160042EA015164
:1006E000C20840071143704700200146704701F0DF
:1006F000004330B421F0004150EA010206D00A0D57
:10070000A2F56072C1F31301002A02DC30BC0020A4
:100710007047440F44EAC104C100E01830BC00EB4C
:10072000C25000F046B80000002801DBC0F10040D4
:10073000002901DBC1F1004181427047002801DB43
:10074000C0F10040002901DBC1F10041884270473F
:10075000202A04DB203A00FA02F100207047914081
:10076000C2F1200320FA03F3194390407047202A76
:1007700004DB203A21FA02F00021704721FA02F34B
:10078000D040C2F120029140084319467047202A08
:1007900006DBCB17203A41FA02F043EAE07306E0A9
:1007A00041FA02F3D040C2F12002914008431946B9
:1007B00070470029A8BF7047401C490008BF20F0BF
:1007C0000100704710B4B0FA80FC00FA0CF050EA57
:1007D000010404BF10BC704749B1CCF1200421FAD8
:1007E00004F411FA0CF118BF012121430843A3EBD3
:1007F0000C01CB1D4FEA00614FEA102042BF0020E0
:1008000010BC704700EBC35010440029A4BF10BCBB
:100810007047401C490008BF20F0010010BC704721
:1008200010B5141E73F1000408DA401C41F10001F8
:1008300092185B411A4301D120F0010010BD2DE94F
:10084000F04D92469B4611B1B1FA81F202E0B0FA46
:1008500080F220329046FFF77BFF04460F4640EAC5
:100860000A0041EA0B0153465A46084313D0114689
:1008700053EA010019D0C8F140025046FFF777FF54
:1008800005460E46504659464246FFF761FF08436B
:1008900005D0012004E020463946BDE8F08D002057
:1008A000054346EAE0762C4337430A986305E40A99
:1008B000A0EB08000022FD0A44EA47540A3002D5A2
:1008C00000200146E9E7010510196941DDE9084505
:1008D00000196941BDE8F04DA2E770B521F0004371
:1008E00003430CD0C1F30A550024D5EB040564EB97
:1008F0000403D617AD1AB34102DB0020014670BDD8
:10090000201841EB025170BD30B5041E71F1000496
:1009100004DB4FF00044404264EB0101141E73F10C
:10092000000405DB1C464FF00043524263EB040316
:10093000994208BF904230BD064C074D06E0E06882
:1009400040F0010394E8070098471034AC42F6D316
:10095000FFF7F2FB00450008204500082DE9F04DA7
:1009600000231A461B1A8A4103DB00200146BDE81A
:10097000F08DC1F30A52C1F3130141F480154FF019
:10098000000BD10702D100186D41521E002704460A
:1009900040F2FF11384601EB620A3E4680460246AD
:1009A00000204FF48011FFF7E2FEC2197141BB181D
:1009B00046EB0100B4EB030C75EB000C04D3E41A16
:1009C00065EB000517460E46241908F101006D413C
:1009D00080463428E3DDF91946EB0600091BA841DF
:1009E00003D24FF0FF32134601E0002213461BEB07
:1009F000070046EB0A51BDE8F04DFFF711BF70B597
:100A00008C1810F8015B15F0070301D110F8013BB9
:100A10002A1106D110F8012B03E010F8016B01F840
:100A2000016B5B1EF9D12B0705D40023521E0DD498
:100A300001F8013BFAE710F8013BCB1A921C03E0E6
:100A400013F8015B01F8015B521EF9D5A142D8D31E
:100A5000002070BD21B1826842F00102826003E093
:100A6000826822F0010282607047000010B50446DF
:100A70001248844208D10121401500F095FE002162
:100A8000601500F091FE17E00D48844208D1012165
:100A9000001500F089FE0021201500F085FE0BE016
:100AA0000848844208D10121C80300F07DFE0021DE
:100AB0004FF4004000F078FE10BD0000002401401B
:100AC00000280140003C0140014600208A6802F0F5
:100AD00004020AB1012000E0002070470146C86C02
:100AE00080B270470246002013680B400BB1012012
:100AF00000E000207047014600208A6802F00802EA
:100B00000AB1012000E000207047000030B5024625
:100B10000020002350680F4C20400D790C6844EAF7
:100B200005242043506090680B4C2040D1E90254CA
:100B30002C434D7944EA450420439060D06A20F468
:100B400070000C7C641EE4B2234340EA0350D06280
:100B500030BD0000FFFEF0FFFDF7F1FFF0B50446E9
:100B60000D4600200021092D11DDE068A5F10A06DF
:100B700006EB4607072606FA07F18843A5F10A06A1
:100B800006EB460603FA06F10843E0600CE0206934
:100B900005EB4507072606FA07F1884305EB4506EE
:100BA00003FA06F108432061072A0FDA606B561E2C
:100BB00006EB86071F2606FA07F18843561E06EB4A
:100BC000860605FA06F10843606322E00D2A0FDA73
:100BD000206BD61F06EB86071F2606FA07F188430F
:100BE000D61F06EB860605FA06F10843206310E0DF
:100BF000E06AA2F10D0606EB86071F2606FA07F14A
:100C00008843A2F10D0606EB860605FA06F10843B5
:100C1000E062F0BD816841F008018160704721B158
:100C2000826842F4A002826003E0826822F4A0029B
:100C300082607047816841F0040181607047000064
:100C400000B587B001214FF4017000F09DFD4FF415
:100C5000004000F05DFD0220ADF8040000208DF89A
:100C6000070001A9174800F0B9F91748FFF7FEFE81
:100C7000002002908DF80C008DF80D004FF46020DC
:100C800004900020059001208DF8180002A90E485C
:100C9000FFF73CFF01210C48FFF7DCFE0A48FFF795
:100CA000B9FF00BF0848FFF726FF0028FAD1064821
:100CB000FFF7C0FF00BF0448FFF706FF0028FAD186
:100CC00007B000BD000801400024014000BFFEE75E
:100CD00021B1026842F00102026004E002684FF6AE
:100CE000FE731A400260704701684FF6FE721140B1
:100CF00001600021016041608160C1604B49884210
:100D000008D14A490839496841F00F01474A083A71
:100D100051608AE045491431884208D14349083975
:100D2000496841F0F001414A083A51607DE03F498D
:100D30002831884208D13D490839496841F4706139
:100D40003A4A083A516070E038493C31884208D14B
:100D500036490839496841F47041344A083A5160CB
:100D600063E032495031884208D130490839496836
:100D700041F470212D4A083A516056E02B49643104
:100D8000884208D129490839496841F47001274A45
:100D9000083A516049E025497831884208D1234911
:100DA0000839496841F07061204A083A51603CE0D6
:100DB0001F49884206D1011F096841F00F01021F37
:100DC000116032E01A491431884208D11849091FCC
:100DD000096841F0F001164A121F116025E014491C
:100DE0002831884208D11249091F096841F470610D
:100DF0000F4A121F116018E00D493C31884208D19A
:100E00000B49091F096841F47041094A121F11601A
:100E10000BE007495031884207D10549091F09688D
:100E200041F47021024A121F11607047080002400D
:100E3000080402400146486880B2704710B500229D
:100E4000026847F6F0739A430C6A8B6823430C6977
:100E500023434C6923438C692343CC6923434C6A65
:100E600023438C6A23431A430260CB6843600B68B8
:100E700083604B68C36010BD4160704770470000DD
:100E800030B5044604254FF4302000F06FF80546D5
:100E9000042D17D10C48006940F002000A4908618E
:100EA00008464461006940F0400008614FF430207A
:100EB00000F05CF805460448006941F6FD71084001
:100EC00001490861284630BD0020024004200B493A
:100ED000C96801F0010109B101200EE00749C968A4
:100EE00001F0040109B1022007E00449C96801F0DA
:100EF000100109B1032000E00420704700200240E7
:100F00000348006940F08000014908617047000013
:100F10000020024070B504460D460426F00200F0A1
:100F200025F80646042E11D10948006940F0010059
:100F3000074908612580F00200F018F806460448C9
:100F4000006941F6FE71084001490861304670BDF4
:100F50000020024002480349486003484860704747
:100F60002301674500200240AB89EFCD00B5024662
:100F70000423FFF7ABFF034603E0FFF7A7FF034699
:100F8000521E012B01D1002AF7D102B905231846C0
:100F900000BD000008B50121302000F0F5FBFF2066
:100FA000ADF8000010208DF8030003208DF802003A
:100FB0006946084800F012F80720ADF8000010203C
:100FC0008DF8030003208DF802006946024800F006
:100FD00005F808BD00140140001001402DE9F04162
:100FE000024600250026002000230024002791F857
:100FF00003C00CF00F0591F803C00CF0100CBCF10D
:10100000000F03D091F802C04CEA050591F800C02A
:10101000BCF1000F31D0146800202BE04FF0010C20
:101020000CFA00F3B1F800C00CEA03069E4220D18E
:1010300083004FF00F0C0CFA03F7BC4305FA03FCD6
:101040004CEA040491F803C0BCF1280F06D14FF01C
:10105000010C0CFA00FCC2F814C00AE091F803C0BD
:10106000BCF1480F05D14FF0010C0CFA00FCC2F89E
:1010700010C0401C0828D1D31460B1F800C0BCF1E6
:10108000FF0F34DD546800202EE000F1080C4FF013
:10109000010808FA0CF3B1F800C00CEA03069E42FE
:1010A00021D183004FF00F0C0CFA03F7BC4305FA73
:1010B00003FC4CEA040491F803C0BCF1280F05D1ED
:1010C00000F1080C08FA0CF8C2F8148091F803C07B
:1010D000BCF1480F07D100F1080C4FF0010808FAE5
:1010E0000CF8C2F81080401C0828CED35460BDE82C
:1010F000F0810000F0B50A460023002400210025FD
:1011000000F00046B6F1004F02D11D4EF16901E03A
:101110001B4E7168C0F3034583B200F44016B6F568
:10112000401F08D121F07061154E766826F0706678
:10113000134F7E6012E000F48016B6F5801F06D1D2
:10114000032606FA05F4A14341F0706106E0460D5E
:10115000360103FA06F6B14341F0706122B1460D43
:10116000360103FA06F6314300F00046B6F1004FAF
:1011700002D1034EF16101E0014E7160F0BD00004B
:10118000000001400246002093680B400BB1012093
:1011900000E0002070474161704701617047C16005
:1011A0007047000010B50549098808B2FFF733FA07
:1011B0000349086000200149088010BD2408004050
:1011C000E800002010B50446072301222146094803
:1011D000FFF7C4FC01210748FFF721FD00BF0221F2
:1011E0000448FFF77FFC0028F9D00248FFF776FC9F
:1011F00010BD0000002401402DE9F04107460C46D7
:101200000025002608E03846FFF7DCFF05440520EE
:1012100001F05EFF701CC6B2A642F4DBB5FBF4F031
:1012200080B2BDE8F08100BFFEE7000038B50121C3
:10123000402000F0A9FA00241CE0224800EBC40082
:101240008088ADF8000010208DF8030003208DF891
:1012500002001C4951F834006946FFF7BFFE194AE5
:1012600002EBC4029188174A52F83400FFF793FF4B
:10127000601CC4B2042CE0DB002420E011482030C4
:1012800000EBC4008088ADF8000048208DF8030012
:1012900003208DF802000B49203151F834006946D3
:1012A000FFF79CFE074A203202EBC4029188054AF0
:1012B000203252F83400FFF770FF601CC4B2042CD7
:1012C000DCDB38BD0401002070B5002445E0254A70
:1012D00002EBC4029188234A52F83400FFF752FF10
:1012E000002838D11F4A02EBC40291881D4A52F8E7
:1012F0003400224600F0D2FA064600250AE0194AD8
:1013000002EBC5029188174A52F83500FFF745FFF6
:10131000681CC5B2042DF2DB00250CE0114A203A0E
:1013200002EBC50291880F4A203A52F83500FFF7C8
:1013300032FF681CC5B2042DF0DB00BF094A02EB86
:10134000C4029188074A52F83400FFF71BFF0028B7
:10135000F4D0304670BD601CC4B2042CB7DB002052
:10136000F8E700002401002010B5012000F056F835
:1013700010BD10B5382000F051F80C2000F04EF8E8
:10138000062000F04BF8012000F048F810BD70B5C1
:1013900004460E460EB9E5B202E004F14000C5B2C3
:1013A00045F0800000F03AF870BD70B505460E4675
:1013B000144631462846FFF7EAFF03E014F8010B14
:1013C00000F04AF820780028F8D170BD10B5FF2150
:1013D0001048FFF7E4FE01210F48FFF7DCFE022171
:1013E0000D48FFF7DAFE00BF04210B48FFF7D5FEDA
:1013F000052001F047FE80210648FFF7C3FE0446A2
:1014000004210548FFF7C7FE04F080000028EBD157
:1014100010BD0000001401400010014010B504464A
:10142000FFF7D4FF01210A48FFF7B5FE0221084863
:10143000FFF7B1FE21460748FFF7B1FE042104483B
:10144000FFF7ABFE04210248FFF7A5FE10BD000028
:10145000001001400014014010B50446FFF7B6FF2C
:1014600001210A48FFF799FE02210848FFF793FE81
:1014700021460748FFF793FE04210448FFF78DFE3D
:1014800004210248FFF787FE10BD00000010014054
:10149000001401402DE9FC4106460F4615461C4646
:1014A000002000900190002C04DA2D208DF800001F
:1014B000644202E020208DF800004FF47A7094FB23
:1014C000F0F03030C0B28DF801004FF47A7094FB28
:1014D000F0F100FB1140642190FBF1F03030C0B21C
:1014E0008DF80200642094FBF0F100FB11400A210A
:1014F00090FBF1F03030C0B28DF803000A2094FB6D
:10150000F0F100FB11403030C0B28DF804002A46E3
:1015100039463046FFF749FF2846FEF725FE00F022
:10152000FF086A4639464046FFF73FFFBDE8FC81A9
:1015300008B50121102000F027F94020ADF8000087
:1015400010208DF8030003208DF802006946094839
:10155000FFF744FD8020ADF8000069460548FFF71D
:101560003DFD40210348FFF716FE80210148FFF7AB
:1015700012FE08BD0010014000BFFEE770B52F4805
:1015800004682F4801682046FEF747FE05462D49AE
:10159000FFF7D4F806D22B4929480068FEF7EBFD87
:1015A00004460FE0264801682046FEF736FE054651
:1015B0002549FFF7B9F805D2224921480068FEF70E
:1015C0002CFE044621492046FFF7B8F801D21F4CF3
:1015D00005E01F492046FFF7A7F800D21C4C184829
:1015E000046000212046FFF7A9F810D840201949CF
:1015F00048618020086118492046FEF7BCFD064678
:10160000FFF74EF885B2284602F006FF14E00021ED
:101610002046FFF789F80FD240200E49086180204C
:10162000486121460C48FEF7F8FD0646FFF738F8FA
:1016300085B2284602F0F0FE70BD000000010020D7
:10164000F400002000002041000020C10000E14320
:101650000000E1C3001001400000FA43704708B5E4
:101660004FF4A06000F048F825208DF8000000201D
:101670008DF8010001208DF802008DF80300684606
:1016800000F002F808BD000070B5002100230F2211
:10169000C47804B3154C246804F4E064C4F5E06431
:1016A000210AC1F10403CA40447804FA03F18478A2
:1016B0001440214309010E4C0678A155047804F02A
:1016C0001F050124AC4005786D11AD0005F1E02542
:1016D000C5F8004109E0047804F01F050124AC407E
:1016E000044D0678761145F8264070BD0CED00E0FB
:1016F00000E400E080E100E002490143024A116099
:10170000704700000000FA050CED00E07047000093
:1017100001460020034A506820F4404008435060CE
:10172000704700000010024029B1064A5269024386
:10173000044B5A6104E0034A52698243014B5A61E7
:10174000704700000010024029B1064AD2690243E6
:10175000044BDA6104E0034AD2698243014BDA6147
:10176000704700000010024029B1064A1269024386
:10177000044B1A6104E0034A12698243014B1A6167
:10178000704700000010024029B1064A92690243E6
:10179000044B9A6104E0034A92698243014B9A61C7
:1017A000704700000010024029B1064AD268024387
:1017B000044BDA6004E0034AD2688243014BDA60EA
:1017C000704700000010024030B5002100220024C4
:1017D00000232D4D6D6805F00C0121B1042905D0C1
:1017E000082923D105E0294D056022E0274D056039
:1017F0001FE0254D6D6805F47012234D6D6805F4EA
:101800008034022505EB92421CB9214D55430560F9
:101810000BE01D4D6D6805F400351DB11C4D5543A1
:10182000056002E0194D5543056002E0174D056063
:1018300000BF00BF144D6D6805F0F0010909154D9A
:101840006B5C0568DD4045600F4D6D6805F4E06137
:10185000090A104D6B5C4568DD4085600A4D6D6876
:1018600005F46051C90A0B4D6B5C4568DD40C560ED
:10187000054D6D6805F44041890B074D6B5CC568EB
:10188000B5FBF3F5056130BD0010024000127A008F
:1018900000093D0014000020240000202DE9F04143
:1018A00006460F461546012001F0ECFB002428E017
:1018B000164A02EBC4029188144A52F83400FFF72A
:1018C0006CFC39463046FFF75DFC01280ED10F4A0B
:1018D00002EBC40291880D4A52F83400FFF75BFC1A
:1018E00005EB8400401CC0B2BDE8F081074A02EB62
:1018F000C4029188054A52F83400FFF74CFC601C82
:10190000C4B2042CD4DB0020EEE700000401002068
:1019100030B503460C461546002207E0184600F095
:1019200008F824F812009B1C501C82B2AA42F5DB76
:1019300030BD0146088870472DE9F05F80468A4631
:101940001746B8F1006F02D33348804501D3BDE894
:10195000F09FFFF7FFFAA8F1006B4FEADB26CBF30D
:101960004909C9F58064A74200DC3C464DE04FF0D0
:10197000006101EBC6204A142849FFF7C9FF002582
:101980000BE009EB0500254931F810004FF6FF7117
:10199000884200D003E0681C85B2A542F1DB00BF9D
:1019A000A5421BDA4FF0006101EBC620FFF768FA91
:1019B000002508E03AF8150005EB0901174A22F85E
:1019C0001100681C85B2A542F4DB4FF0006101EB09
:1019D000C6204A14114900F023F804E0224651467B
:1019E000404600F01DF8A74200D10FE0761C4FF0F2
:1019F00000090AEB440AA044381B87B2B7F5806F90
:101A000002DD4FF4806400E03C46B0E700BFFFF722
:101A100077FA00BF9BE7000000000808D001002013
:101A20002DE9F04105460E461746002407E036F83A
:101A300014102846FFF76EFAAD1C601C84B2BC423D
:101A4000F5DBBDE8F081704710B500F001F810BD7E
:101A50000CB50020019000903348006840F48030BD
:101A60003149086000BF3048006800F40030009041
:101A70000198401C0190009818B90198B0F5A06F2A
:101A8000F1D12948006800F4003010B10120009025
:101A900001E0002000900098012843D1234800680D
:101AA00040F01000214908600846006820F003005B
:101AB00008600846006840F0020008601A48406864
:101AC000194948600846406848600846406840F444
:101AD000806048600846406820F47C1048600846F2
:101AE000406840F4E81048600846006840F08070A4
:101AF000086000BF0C48006800F000700028F9D0B2
:101B00000948406820F003000749486008464068DB
:101B100040F00200486000BF0348406800F00C003D
:101B20000828F9D10CBD000000100240002002403E
:101B3000042808D14FF0E021096941F004014FF079
:101B4000E022116107E04FF0E021096921F0040172
:101B50004FF0E0221161704700200CE0074951F876
:101B6000201031B1054951F82010491E034A42F8AE
:101B70002010411CC8B20228F0DB7047B0000020E2
:101B800010B51348006840F001001149086008468C
:101B90004068104908400E494860084600680E49F0
:101BA00008400B4908600846006820F4802008605F
:101BB0000846406820F4FE0048604FF41F0088602B
:101BC000FFF742FF4FF000600449086010BD0000BD
:101BD000001002400000FFF8FFFFF6FE08ED00E0F5
:101BE000F0B50C46154600220021068C4FF6FE7714
:101BF0003E400684028B018C4FF60C7632407E1CF0
:101C000006EA03162E433243104EB0420ED0104E59
:101C1000B0420BD0B0F1804F08D00E4EB04205D08C
:101C20000D4EB04202D00D4EB04206D14FF6FD76B9
:101C3000314044F00106314305E04FF6F57631407E
:101C400044F00106314302830184F0BD002C0140C1
:101C5000003401400004004000080040000C004037
:101C6000F0B50C461546002200210026078C4FF6E1
:101C7000EF7C07EA0C070784028B018C4FF6FF7795
:101C800007EA041640F6FF473A404FF6FF7707EAA7
:101C900003373A434FF6FF7707EA05273A43114FD8
:101CA000B8420ED0104FB8420BD0B0F1804F08D0E0
:101CB0000E4FB84205D00E4FB84202D00D4FB84279
:101CC00006D14FF6DF77394046F01007394305E07B
:101CD0004FF65F77394044F010073943028301849F
:101CE000F0BD0000002C0140003401400004004021
:101CF00000080040000C0040F0B50C4615460022DC
:101D000000210026078C4FF6FF6C07EA0C070784BA
:101D1000828B018C4FF6FF7707EA04264FF60C778B
:101D20003A404FF6FF7707EA03172F433A43114F24
:101D3000B8420ED0104FB8420BD0B0F1804F08D04F
:101D40000E4FB84205D00E4FB84202D00D4FB842E8
:101D500006D14FF6FF57394046F48077394305E006
:101D60004FF2FF57394044F480773943828301842E
:101D7000F0BD0000002C0140003401400004004090
:101D800000080040000C0040F0B50C46154600224B
:101D900000210026078C4EF6FF7C07EA0C0707841B
:101DA000828B018C4FF6FF7707EA043640F6FF4737
:101DB0003A404FF6FF7707EA05273A434FF6FF7799
:101DC00007EA03373A43114FB8420ED0104FB842DA
:101DD0000BD0B0F1804F08D00E4FB84205D00E4F57
:101DE000B84202D00D4FB84206D14DF6FF773940C8
:101DF00046F48057394305E047F6FF57394044F42D
:101E00008057394382830184F0BD0000002C0140DB
:101E1000003401400004004000080040000C004075
:101E20000EB501210846FFF78FFC4720ADF80000F2
:101E30000020ADF802004FF4FA60ADF804006946E6
:101E4000800600F055FC01224121880700F0BFFA0E
:101E50000121880700F02AF90EBD000010B501210C
:101E6000880700F044FA00287BD03E480068401CF8
:101E70003C4908603C480078401C3B4908700846D3
:101E80000078322848DB3948007820B1012811D089
:101E9000022827D11AE03649364A127831F8120062
:101EA00002F0C6FA3249334A127831F8120002F0D1
:101EB000B9FA17E02E492F4A127831F8120002F0D1
:101EC000B7FA40F2E63002F0ADFA0BE040F2E6304D
:101ED00002F0AEFA2649274A127831F8120002F0D1
:101EE000A1FA00BF00BF23480078401C21490870B8
:101EF0000846007828280CDB002008701B48007872
:101F0000401C1A49087008460078032801DB0020AD
:101F1000087000201449087012480068012802D097
:101F2000022819D110E014480068401C12490860CA
:101F3000FFF738F9104800680A2804D102F080F948
:101F400000200D49086007E000F096FFFFF716FB40
:101F500000200449086000BF00BF0121880700F08D
:101F6000A2F810BD28000020AD0000204000002095
:101F700042000020AC000020A000002008B54FF473
:101F8000A060FFF7B9FB1C208DF8000000208DF841
:101F900001008DF8020001208DF803006846FFF76C
:101FA00073FB08BD10B50121034800F0A0F9012121
:101FB000014800F078F810BD0008004010B500F0AE
:101FC00001F810BD00B589B001210420FFF7BCFB6A
:101FD00001210820FFF7D8FBC020ADF82000042025
:101FE0008DF8230003208DF8220008A92448FEF76D
:101FF000F5FF244800F066F84FF6FF70ADF81800C2
:102000000020ADF81400ADF81A00ADF8160005A9CF
:102010001C4800F06DFB00231A460121194800F00E
:1020200045F902A800F0CAF90620ADF8100002A98F
:10203000144800F06DF94FF4A060FFF75DFB1E201F
:102040008DF8040002208DF805008DF806000120AF
:102050008DF8070001A8FFF717FB0121094800F0E0
:102060001FF801224121074800F0B1F9002005497D
:10207000243108800121034800F018F809B000BDA0
:10208000000C01400008004021B1028842F08002AB
:10209000028004E002884FF67F731A400280704786
:1020A000CA4302827047CA430282704721B1028844
:1020B00042F00102028004E002884FF6FE731A40EB
:1020C0000280704710B504466848844208D1012157
:1020D000C014FFF769FB0021E014FFF765FBC4E0C3
:1020E000B4F1804F08D101210846FFF73DFB0021E4
:1020F0000120FFF739FBB8E05D48844208D1012197
:102100000220FFF731FB00210220FFF72DFBACE09E
:102110005848844208D101210420FFF725FB002103
:102120000420FFF721FBA0E05348844208D101219D
:102130000820FFF719FB00210820FFF715FB94E0AA
:102140004E48844208D101211020FFF70DFB0021E9
:102150001020FFF709FB88E04948844208D101219B
:102160002020FFF701FB00212020FFF7FDFA7CE093
:102170004448844208D101214014FFF715FB002197
:102180006014FFF711FB70E03F48844209D1012140
:10219000C804FFF709FB00214FF40020FFF704FB00
:1021A00063E03A48844209D101210805FFF7FCFAAF
:1021B00000214FF48010FFF7F7FA56E034488442CC
:1021C00009D101214805FFF7EFFA00214FF4001073
:1021D000FFF7EAFA49E02F48844208D10121402064
:1021E000FFF7C2FA00214020FFF7BEFA3DE02A487F
:1021F000844208D101218020FFF7B6FA0021802017
:10220000FFF7B2FA31E02548844208D10121801558
:10221000FFF7AAFA0021A015FFF7A6FA25E020484B
:10222000844209D101210804FFF7BEFA00214FF4CE
:102230008030FFF7B9FA18E01A48844209D1012129
:102240004804FFF7B1FA00214FF40030FFF7ACFA71
:102250000BE01548844208D101218804FFF7A4FA55
:1022600000214FF48020FFF79FFA10BD002C0140A1
:102270000004004000080040000C00400010004036
:102280000014004000340140004C01400050014067
:102290000054014000180040001C00400020004095
:1022A000004001400044014000480140F0B50C46A8
:1022B00015461E460021002200230189028B038C53
:1022C0004FF6F877394021434FF6FC473A4040F249
:1022D00001173A434FF6DD773B404FF6FF7707EAA9
:1022E00006172F433B43018102830384F0BD30B5C1
:1022F0000246002000230024158A05EA010395897F
:1023000005EA010413B10CB1012000E0002030BD4A
:1023100070B505460C46244885420ED023488542B8
:102320000BD0B5F1804F08D02148854205D0214817
:10233000854202D02048854200D100E000BF2088BD
:1023400050B92389A28861882846FFF749FCE188B3
:10235000284600F0A0F925E0208804280AD1238926
:10236000A28861882846FFF77BFCE188284600F0B8
:102370009BF917E0208808280AD12389A288618860
:102380002846FFF7B9FCE188284600F09AF909E0F1
:102390002389A28861882846FFF7F6FCE188284651
:1023A00000F098F970BD0000002C0140003401409D
:1023B0000004004000080040000C004000210180A3
:1023C0004180012181800021C180018170471AB1C3
:1023D00083890B43838102E083898B438381704728
:1023E00070B5002400220023058C4FF6FE763540A0
:1023F0000584028C8388048B4FF68F752C40B51EA4
:102400002C400D882C43751E2A400D892A434D8887
:102410002A43144DA8420BD0134DA84208D0134DA7
:10242000A84205D0124DA84202D0124DA84213D1A5
:102430004FF6F7752A404D892A434FF6FB752A401F
:102440008D882A434FF6FF652B404FF6FF552B40F2
:102450008D892B43CD892B4383800483CD8885864A
:10246000028470BD002C0140003401400040014056
:1024700000440140004801400A460021018B4FF60C
:10248000F7731940114301837047000070B50024B1
:1024900000220023058C4FF6EF7635400584028C30
:1024A0008388048B48F6FF752C404FF6FF452C407F
:1024B0000D884FF6FF7606EA05252C434FF6DF75AB
:1024C0002A400D8906EA05152A434D8806EA0515B6
:1024D0002A43154DA84202D0144DA8421DD14FF6F3
:1024E0007F752A404D894FF6FF7606EA05152A4387
:1024F0004FF6BF752A408D8806EA05152A434FF628
:10250000FF352B404FF2FF752B408D8906EA85057C
:102510002B43CD8906EA85052B4383800483CD8830
:102520000587028470BD0000002C0140003401408A
:102530000A460021018B4FF2FF7319404FF6FF73DB
:1025400003EA0223194301837047000070B5002499
:1025500000220023058C4FF6FF6635400584028C6F
:102560008388848B4FF68F752C404FF6FC752C407A
:102570000D882C434FF6FF552A400D894FF6FF7604
:1025800006EA05252A434D8806EA05252A43154D06
:10259000A84202D0144DA8421DD14FF2FF752A4027
:1025A0004D894FF6FF7606EA05252A434FF6FF359B
:1025B0002A408D8806EA05252A434EF6FF752B40F2
:1025C0004DF6FF752B408D8906EA05152B43CD8905
:1025D00006EA05152B4383808483CD888587028492
:1025E00070BD0000002C0140003401400A4600216B
:1025F000818B4FF6F77319401143818370470000B8
:1026000070B5002200230024058C4EF6FF7635407D
:102610000584038C8488828B48F6FF752A404FF628
:10262000FF452A400D884FF6FF7606EA05252A4326
:102630004DF6FF752B400D8906EA05352B434D8875
:1026400006EA05352B430B4DA84202D00A4DA8429D
:1026500008D14BF6FF752C408D894FF6FF7606EAC0
:1026600085152C4384808283CD88A0F84050038454
:1026700070BD0000002C0140003401400A460021DA
:10268000818B4FF2FF7319404FF6FF7303EA022369
:10269000194381837047028B4FF6F3731A4002830C
:1026A000028B0A4302837047028B4FF2FF331A40BA
:1026B0000283028B4FF6FF7303EA01231A4302835E
:1026C0007047828B4FF6F3731A408283828B0A43E2
:1026D00082837047828B4FF2FF331A408283828B52
:1026E0004FF6FF7303EA01231A4382837047000009
:1026F000002202881D4B98420ED01D4B98420BD0F1
:10270000B0F1804F08D01B4B984205D01A4B98422D
:1027100002D01A4B984204D14FF68F731A404B885F
:102720001A43174B984207D0164B984204D04FF6E5
:10273000FF431A40CB881A4302808B8883850B881D
:1027400003850A4B98420BD0094B984208D00E4B98
:10275000984205D00D4B984202D00D4B984201D1C2
:102760000B7A03860123838270470000002C01400E
:10277000003401400004004000080040000C00400C
:10278000001000400014004000400140004401409F
:102790000048014008B501210220FEF7D5FF0121C4
:1027A0000920FEF7F1FF01210F48FEF7A3FC1820D6
:1027B0008DF8030003208DF802002020ADF8000002
:1027C00069460A48FEF70AFC0120ADF80000694698
:1027D0000648FEF703FC0220ADF8000069460348F6
:1027E000FEF7FCFB08BD000000081A00000C0140C9
:1027F000F0B587B0002740F2E63400252646601C7D
:10280000ADF814000620ADF810000020ADF8160059
:10281000ADF8120004A92348FFF76AFF6020ADF865
:1028200000000120ADF80200ADF806700020ADF800
:10283000080069461B48FFF7D3FD08211948FFF738
:102840001BFE0120ADF80200ADF8064069461548B0
:10285000FFF71CFE08211348FFF76AFE0120ADF8C0
:102860000200ADF8065069460E48FFF76FFE0821DA
:102870000C48FFF7BBFE0120ADF80200ADF8066082
:1028800069460848FFF7BCFE08210648FFF7F6FE38
:1028900001210448FFF7F8FB01210248FFF706FC7D
:1028A00007B0F0BD0004004010B5FFF773FFFFF75D
:1028B0009FFF10BD2DE9F04788B00024A146A24635
:1028C00040F224412E4800F094F8002855D02C48BE
:1028D0000488001D048800212A48FEF7F9F92948D8
:1028E000FEF7A8FAC0F180040020274908552DE022
:1028F000601EFDF7AFFE02460B46CDE90001002049
:10290000224900F0C1FFCDE902011F4911F8091069
:10291000A1F13000FDF78DFE0746DDE90223FDF74A
:1029200099FD05460E465046FDF7CEFE2A46334633
:10293000CDE90401FDF7E7FCCDE90601FDF7D7FE7F
:10294000824609F101001FFA80F9641E0E4810F852
:1029500009000028CCD151460D48FDF764FC05461E
:102960000C49FDF75AFC0C49086080210548FEF728
:1029700083FA01210348FEF7ABF908B0BDE8F08700
:10298000003801405800024050010020000024405F
:102990000000C04000009643B800002001F400721F
:1029A000B2F5007F00D100BFCA430280704721B159
:1029B000828942F40052828104E082894DF6FF73DD
:1029C0001A40828170471AB1838A0B43838202E0E6
:1029D000838A8B438382704702460020B1F5007FD3
:1029E00000D100BF13880B400BB1012000E0002094
:1029F000704770B50246002400230025002040F6F1
:102A00006A16B14200D100BFC1F3421501F01F03A5
:102A1000012606FA03F3012D02D19689334006E020
:102A2000022D02D1168A334001E0968A33400C12FF
:102A3000012606FA04F41688344013B10CB10120C3
:102A400000E0002070BDF0B50346002400260025FC
:102A5000002040F66A17B94200D100BF1846C1F302
:102A6000421401F01F06012707FA06F5012C01D1D7
:102A70000C3004E0022C01D1103000E014301AB107
:102A800007682F43076002E00768AF430760F0BDA7
:102A90002DE9F04786B005460E460024A24600BF49
:102AA000A1460027B08900B100BF2F462C8A4CF602
:102AB000FF700440F08804432C82AC894EF6F3107A
:102AC0000440B08831890843718908430443AC81CC
:102AD000AC8A4FF6FF400440B0890443AC8201A8A1
:102AE000FEF772FE1F48874202D1DDF810A001E018
:102AF000DDF80CA0A88900F4004040B10AEBCA0040
:102B000000EB0A1031684900B0FBF1F807E00AEB6E
:102B1000CA0000EB0A1031688900B0FBF1F86420AC
:102B2000B8FBF0F004012009642101FB1089A88999
:102B300000F4004040B1322000EBC900B0FBF1F0DE
:102B400000F00700044308E0322000EB0910642184
:102B5000B0FBF1F000F00F0004432C8106B0BDE89B
:102B6000F087000000380140C1F3080282807047FE
:102B700010B586B001218803FEF706FE012105206D
:102B8000FEF702FE4FF40070ADF8140018208DF827
:102B9000170003208DF8160005A91648FEF71EFA47
:102BA0004FF48060ADF8140004208DF8170005A9DB
:102BB0001048FEF713FA104C4FF4E130019000205A
:102BC000ADF80800ADF80A00ADF80C00ADF8100043
:102BD0000C20ADF80E0001A92046FFF759FF012196
:102BE0002046FFF7E4FE40212046FFF7D7FE06B05F
:102BF00010BD0000000801400038014000B591B050
:102C000001218803FEF7C0FD01210846FEF78CFD77
:102C10003D48FEF769F801210520FEF7B5FD4FF4A8
:102C20000070ADF8400018208DF8430003208DF8A7
:102C3000420010A93548FEF7D1F94FF48060ADF895
:102C4000400004208DF8430010A93048FEF7C6F973
:102C50002F4801902F48029000200390802004907C
:102C60000020059080200690002007900890099091
:102C70004FF440500A9000200B9001A92248FEF723
:102C8000DDF801212048FEF723F84FF4E1300C90E5
:102C90000020ADF83400ADF83600ADF83800ADF8DE
:102CA0003C000C20ADF83A000CA91948001FFFF7B2
:102CB000EFFEFEF7D4FC002240F225511448001F1D
:102CC000FFF7C1FE002240F226611148001FFFF706
:102CD000BAFE012240F224410D48001FFFF7B3FE67
:102CE000012280210A48001FFFF76DFE01224021CA
:102CF0000748001FFFF767FE01210548001FFFF787
:102D000056FE11B000BD000058000240000801400E
:102D1000043801405001002000BFFEE770B50446B2
:102D20000D4629462046FFF71FFF00BF80212046A1
:102D3000FFF752FE0028F9D070BD490050EAC120CB
:102D400018BF04204A0D18BF40F0010040F2FF7286
:102D5000B2EB515F08BF40F00200012808BF052018
:102D600070472DE9F0414F1E00EBC7010446D1E941
:102D7000000115461E4637F006020DD02A4633469E
:102D8000FDF768FB7F1E04EBC703D3E90023FDF7C3
:102D9000BAFA37F00602F1D1022F25D0042F13D052
:102DA000062F18BFBDE8F0812A463346FDF752FBD7
:102DB000D4E90A23FDF7A7FA2A463346FDF74AFB72
:102DC000D4E90823FDF79FFA2A463346FDF742FB74
:102DD000D4E90623FDF797FA2A463346FDF73AFB76
:102DE000D4E90423FDF78FFA2A463346FDF732FB78
:102DF000D4E90223FDF787FA2A463346FDF72AFB7A
:102E0000D4E90023BDE8F041FDF77DBA0022134666
:102E100010460149FDF790BB0000F03FFDF773BA83
:102E20000022134610461146FDF786BB40F20132E0
:102E300000204FF0E041FDF750BD0000024A0020A5
:102E40001107FDF74ABD000001FDFFFF02E008C8C1
:102E5000121F08C1002AFAD170477047002001E014
:102E600001C1121F002AFBD1704700000149086010
:102E7000704700004C0100202DE9F04F8BB04FF05F
:102E8000000AD3460020099008900A210120FEF78D
:102E9000B3F90190FDF7DEFB80465A4A5A4BFDF725
:102EA000D3FA0646574A594BFDF7D4FA0446554A19
:102EB000574BFDF7CFFACDE9040156480068FDF7FE
:102EC00003FC0446544A554BFDF7C4FACDE9020110
:102ED000DDE90423FDF717FACDE90601FDF707FC4C
:102EE0004C4908604E494F480068FDF79CF904467C
:102EF000484801682046FDF790F982464A48016833
:102F00005046FDF71BFC01D2012500E00025464894
:102F1000006880F0004451462046FDF70FFC01D2C6
:102F2000012000E00020054315B10020089001E0D9
:102F3000012008903D498878FDF776FB044651460C
:102F4000FDF771F983460898FDF765FB064637499A
:102F5000C878FDF769FB07463149FDF796F9054644
:102F60005146FDF760F904463146FDF75CF90990DA
:102F70002F4809990068FDF7FEF82D4908602D4893
:102F800001682B480068FDF7D9FB04D22948006886
:102F9000274908600FE02748006880F00044244873
:102FA00001682046FDF7CAFB05D22248006880F080
:102FB00000401F4908601E4801685846FDF7DBF8CD
:102FC0001D4908601D4801681B480068FDF7B6FBF5
:102FD00004D21A480068184908600FE017480068D2
:102FE00080F00044144801682046FDF7A7FB05D295
:102FF0001248006880F000400F4908600BB0BDE83F
:10300000F08F00009A9999991974A0409999F93F05
:103010009999B93FF8000020CDCCCCCCCCCCEC3F7A
:103020000000C842F0000020D80000204801002025
:10303000FC000020DC00002000010020E000002057
:1030400010B56FF00400FEF773FD0A4800680A49E6
:10305000B0FBF1F0094908700846007800EB400128
:10306000C1EBC0104FF6FF7101EAC00004490880AF
:1030700010BD00000000002000127A004401002072
:10308000460100200146114A12884A434FF0E023CE
:103090005A6100229A611A46126942F001021A61CD
:1030A00000BF4FF0E022106900F001021AB100F4F5
:1030B0008032002AF5D04FF0E022126922F001029E
:1030C0004FF0E0231A6100229A6170474601002008
:1030D0000146114A12784A434FF0E0235A61002218
:1030E0009A611A46126942F001021A6100BF4FF05C
:1030F000E022106900F001021AB100F48032002AC7
:10310000F5D04FF0E022126922F001024FF0E023E7
:103110001A6100229A61704744010020FFF790FF76
:103120000520FFF7AFFFFEF781F8FDF733FFFEF74D
:1031300020F90422FC49FD48FEF7EAFB0520FFF7D1
:10314000A1FFFBA200210846FEF72FF923E0FEF7BE
:10315000BBF8012804D002280DD003281AD115E0AD
:103160000020F5490860FEF7FFF8F1A200210846AB
:10317000FEF71BF90EE00120EF490860FEF7F4F8B6
:10318000EEA200210846FEF710F903E00120ED4908
:10319000086000BF00BFEB4800680028D7D0FEF7EA
:1031A000E3F8E548006801282AD1DF480378E6A261
:1031B00000210846FEF76EF9DB484378E4A20121BE
:1031C0000020FEF767F900BFFEF77EF80028FBD06D
:1031D000FEF7CAF8D4488378DFA200210846FEF73C
:1031E00059F9D148C378DEA201210020FEF752F937
:1031F00000BFFEF769F80028FBD0FFF7FFFC10E1E5
:10320000CD4800680028FAD1FFF7B2FCC648037821
:10321000CDA200210846FEF73DF932E0FEF754F852
:10322000D149086008460068012804D0022811D05E
:10323000032822D11DE0FEF797F8BB480078401C18
:10324000B949087008460378BFA200210846FEF776
:1032500021F912E0FEF788F8B3480078401EB24921
:10326000087008460378B8A200210846FEF712F954
:1032700003E00120BD49086000BF00BF0020BA493B
:103280000860BA4800680028C8D00020B749086024
:10329000FEF76AF8A4484378ADA201210020FEF7AA
:1032A000F9F832E0FEF710F8AF4908600846006808
:1032B000012804D0022811D0032822D11DE0FEF7F6
:1032C00053F899484078401C97494870084643781D
:1032D0009FA201210020FEF7DDF812E0FEF744F87E
:1032E00091484078401E904948700846437898A21B
:1032F00001210020FEF7CEF803E001209C49086080
:1033000000BF00BF00209849086099480068002865
:10331000C8D0002096490860FEF726F882488378D6
:103320008DA200210846FEF7B5F832E0FDF7CCFF8C
:103330008D49086008460068012804D0022811D091
:10334000032822D11DE0FEF70FF877488078401C53
:1033500075498870084683787FA200210846FEF7E9
:1033600099F812E0FEF700F86F488078401E6E4929
:1033700088700846837878A200210846FEF78AF80C
:1033800003E001207B49086000BF00BF00207649B0
:103390000860784800680028C8D000207549086097
:1033A000FDF7E2FF6048C3786DA201210020FEF71F
:1033B00071F832E0FDF788FF6B4908600846006845
:1033C000012804D0022811D0032822D11DE0FDF7E6
:1033D000CBFF5548C078401C5349C8700846C37895
:1033E0005FA201210020FEF755F812E0FDF7BCFFB7
:1033F0004D48C078401E4C49C8700846C37858A252
:1034000001210020FEF746F803E001205A49086038
:1034100000BF00BF002054490860574800680028DA
:10342000C8D0002054490860FDF79EFF53A2002138
:103430000846FDF7BAFF0DE0FDF746FF4A49086070
:1034400008460068032802D101204F490860002087
:10345000454908604C4800680028EDD000204A49E2
:103460000860FDF781FFFEF763F8FFF71DFAFDF72F
:10347000E7FBFEF7A3FDFEF781FDFEF7D1FCDFE1E0
:103480002D48006868B941480068414908604148D2
:103490000068486008213E4800F0D0FF0120FFF797
:1034A000F1FDFDF711FF3049086008460068072864
:1034B0000CD2DFE800F00B040C14181F7F00364913
:1034C00036480068FCF757FE344908609AE13249F3
:1034D00032480068FCF7A1FE3049086092E1002004
:1034E0002E4908608EE12D48006880F000402B498D
:1034F000086087E100214FF08040FEF7D7FD4020B3
:10350000274908618020086100200E4908600422D4
:1035100005490648FEF710FAFDF726FF21A2002113
:103520000846FDF742FF6DE1480100200000070852
:103530004465627567000000A400002052656C6558
:1035400061736500A8000020505F533A000000003E
:10355000495F533A00000000505F493A0000000004
:10356000495F493A000000009C0000202C00002028
:1035700030000020380000203C00002053746172AD
:1035800074206E6F773F000034000020E4000020BC
:1035900094000020F800002000004842B8000020FD
:1035A00000100140506172616D6574657220736135
:1035B0007665640000214FF08040FEF777FD4020E3
:1035C000A049086180200861FDF7CEFE9E4803787F
:1035D000AFF28C0200210846FDF75CFF2DE0FDF7FD
:1035E00073FE012804D0022812D0032824D11FE042
:1035F000FDF7BAFE94480078401C934908700846CD
:103600000378AFF2BC0200210846FDF743FF13E048
:10361000FDF7AAFE8C480078401E8B4908700846CA
:103620000378AFF2DC0200210846FDF733FF03E028
:1036300001208649086000BF00BF84480068002858
:10364000CDD0002081490860FDF78EFE7E4843788A
:10365000AFF2041201210020FDF71CFF2DE0FDF761
:1036600033FE012804D0022812D0032824D11FE001
:10367000FDF77AFE74484078401C7349487008464C
:103680004378AFF2341201210020FDF703FF13E06D
:10369000FDF76AFE6C484078401E6B49487008464A
:1036A0004378AFF2541201210020FDF7F3FE03E04E
:1036B00001206749086000BF00BF65480068002816
:1036C000CDD0002062490860FDF74EFE5E48837849
:1036D000AFF27C1200210846FDF7DCFE2DE0FDF77D
:1036E000F3FD012804D0022812D0032824D11FE0C2
:1036F000FDF73AFE54488078401C534988700846CC
:103700008378AFF2AC1200210846FDF7C3FE13E048
:10371000FDF72AFE4C488078401E4B4988700846C9
:103720008378AFF2CC1200210846FDF7B3FE03E028
:1037300001204849086000BF00BF464800680028D3
:10374000CDD0002043490860FDF70EFE3E48C37807
:10375000AFF2F41201210020FDF79CFE2DE0FDF7F1
:10376000B3FD012804D0022812D0032824D11FE081
:10377000FDF7FAFD3448C078401C3349C87008464C
:10378000C378AFF2242201210020FDF783FE13E06D
:10379000FDF7EAFD2C48C078401E2B49C87008464A
:1037A000C378AFF2442201210020FDF773FE03E04D
:1037B00001202949086000BF00BF27480068002891
:1037C000CDD0002024490860FDF7CEFDAFF2542291
:1037D00000210846FDF7E9FD06E0FDF775FD032829
:1037E00002D101201D4908601C4800680028F4D05F
:1037F00000201A490860FDF7B7FD01218807FEF790
:1038000055FC00BF00BF002015490860154800683E
:10381000012815D114480068FCF729FF0446234607
:1038200012A200210846FDF735FE13480068FCF798
:103830001EFF0446234611A201210020FDF72AFEA7
:103840001EE6000000100140480100202C0000206E
:1038500030000020380000203C0000203400002010
:103860009C000020A8000020B8000020537065656F
:10387000645365743A000000E40000204E6F772026
:1038800073706565643A00002DE9F04D16460F46E9
:1038900094B01C4621F0004123F00042002814BFE0
:1038A0004FF0010C4FF0000C0CEB470CFE4B0CEBF7
:1038B00003054FEA630C65452BD3350018BF01257E
:1038C00005EB44051D44F94B9D4222D3F84B52EAC7
:1038D000060C02D09F4205D148B914B00020194609
:1038E000BDE8F08D002808BF4FF0000C01D04FF06C
:1038F000010C0CEB470313F5001F0AD8002E14BF70
:103900004FF0010C4FF0000C0CEB440313F5001FBB
:1039100007D914B0324623463946BDE8F04DFFF7CB
:103920007DBADFF890834FF0000A002FB8BF424500
:1039300023DAE14B9A42A8BF4FF0020A1DDADC4BB2
:1039400093421ADCDD4B03EB2253142B08DDC3F149
:10395000340C26FA0CF303FA0CFCB4450DD108E044
:103960005EB9C3F1140C22FA0CF303FA0CFC944573
:1039700003D103F00103C3F1020A51EA00031BD192
:10398000002C19DA002F18BFBAF1020F02D0BAF1D9
:10399000010F07D00220FFF769FA14B0BDE8F04D1F
:1039A000FFF734BA0220FFF761FAFFF72FFA14B0DD
:1039B00081F00041BDE8F08D330070D1424525D142
:1039C00007F1804212F5801201BF00280020B8499B
:1039D00014B008BFBDE8F08DB548884207DC002C64
:1039E000A1BF1846214614B0BDE8F08D07E0002CB9
:1039F000BFBF184684F0004114B0BDE8F08DB04957
:103A00007944D1E9000114B0BDE8F08DDFF8A0C21F
:103A100062452AD1002C24DA39B1414517D100285A
:103A200004BF002002461CD106E040B10220FFF78F
:103A30001DFAFFF7FBF90A46394600F0D7BA9D4A4E
:103A4000394614B0002062F31E01BDE8F08D08DA9B
:103A500014B03B46BDE8F04D024600206146FCF73D
:103A60006BBD14B03946BDE8F08D414517DAB4F1AD
:103A7000804F0CD0A4F10053B3F1FF530FD13B1E84
:103A80000DDB14B01946BDE8F04D00F08FBC3B468D
:103A900014B00246BDE8F04D1946FCF7DBBC05004A
:103AA00027F000433AD1E1B1414537D1002F06DD7F
:103AB000002CA1BF0020414614B0BDE8F08D002FBE
:103AC00001DD002C1FDB002F16DA002C14DBBAF10D
:103AD000010F4FF0000014BF76497A4914B0BDE8D9
:103AE000F08DBAF1020F18BF002F0CD0BAF1010F00
:103AF00009D1002F07DA0BE0002FB8BF002C0DDA38
:103B0000BAF1010F04D0002014B00146BDE8F08DD9
:103B100014B000204FF00041BDE8F08D4FF00108D7
:103B200008EBE77CCDF814C05CEA0A0C0DD0DFF896
:103B300098C162457EDDDFF894C1654B624512DDB8
:103B40008B420ADB002C18DB23E00120FFF78EF903
:103B500014B0BDE8F04DFFF763B9554A8A4202DC64
:103B6000002C0ADC15E0994202DA002C11DA04E09C
:103B70004F4B994219DD002C0BDD0220FFF776F93F
:103B8000FFF754F94B4A14B061F31E021146BDE829
:103B9000F08D0220FFF76AF9FFF750F9444A14B09C
:103BA00061F31E021146BDE8F08D00223946FCF794
:103BB0004BFC07460D466FF00102FCF78EFE4FF0FE
:103BC0005532444BFCF743FC3A462B46FCF742FC8B
:103BD0000022414BFCF73BFC80468B463A462B4685
:103BE00010461946FCF736FC42465B46FCF732FCB1
:103BF00088460E904FF0C042384B38462946FCF7B5
:103C000029FC83460091364A344B41460E98FCF716
:103C100021FC80460191334A334B38462946FCF754
:103C200019FC4246019BFCF70FFC0D4602460B4671
:103C30000C9000E011E058460099FCF764FB002767
:103C400088465A463846009BFCF7FEFB2B460C9AEA
:103C5000FCF7FDFB024600F079B90020B1F5801FAA
:103C600007DA352228461946FCF737FE05466FF07D
:103C7000340000EB2150A0F2FF300190C1F313009B
:103C800040F07F6141F04051029118498842D8BF0D
:103C90004FF0000B35DD16498142C8BF4FF0010BD4
:103CA0002FDC4FF0000B25E0FFFF1F00FFFF0F0090
:103CB0000000F03F0000F07F0000404301FCFFFFE8
:103CC000F40A00000000F0FF0000E0410000F043B3
:103CD000FFFFEF3F5555D53F0000E03F4715F73F49
:103CE000FE822B6544DF5DF80BAE543E8E980300D8
:103CF0007AB60B000198401C01900298A0F5801044
:103D00000290FF480299784400EBCB000991D0E97A
:103D1000002328460B931292FCF796FB00910A9021
:103D200028460B9B129A0999FCF7EDFA02460B46BE
:103D30000020F449FCF700FCCDE90C010B460246DB
:103D400000990A98FCF786FB0690EF488846002702
:103D500078440299006810904FF0005040EA6100EA
:103D600000EB8B4000F5002102910B9B129A1098FA
:103D7000FCF76AFB2A46099BFCF769FB3A46434677
:103D8000FCF768FB0891129038464146029B109A56
:103D9000FCF760FB009B0A9AFCF759FB089B129A00
:103DA000FCF752FBDDE90C23FCF754FB0B91069A60
:103DB0001290434610461946FCF74CFB0546024656
:103DC000D2480B460A9106217844FEF7CAFF0A9BA7
:103DD0002A460891029010461946FCF73BFB089BC7
:103DE000029AFCF737FB05460991434638461946C7
:103DF000069AFCF788FA0B9B129AFCF72BFB2A46D3
:103E0000099BFCF780FACDE908013A464346104683
:103E10001946FCF71FFB0A910022BD4B0090FCF7EE
:103E200072FADDE90823FCF76EFA0D463A46B84B04
:103E30003846FCF709FB0A9B009AFCF705FBDDE915
:103E40000823FCF704FBCDE908013A462B4610464F
:103E50004146FCF7FFFA00910A90DDE9080143466C
:103E6000069AFCF7F7FA069088462B463A460B99D5
:103E70001298FCF7EFFA4346069AFCF744FA80469C
:103E80000B4602460D9100990A98FCF73CFA002077
:103E90000F460546009B0A9AFCF7D6FA42460D9B50
:103EA000FCF7D5FA88460E904FF06042994B2846B1
:103EB0003946FCF7CFFA02910090974A954B41465C
:103EC0000E98FCF7C7FA80460391944A944B284613
:103ED0003946FCF7BFFA4246039BFCF714FA914AB5
:103EE0007A4402EBCB03D3E90023FCF70CFA054636
:103EF00007910198FCF79DFB0C9003912A46079BC4
:103F000002990098FCF7FFF9874A7A4402EBCB0349
:103F1000D3E9002393460193FCF7F5F9039B0C9A30
:103F2000FCF7F1F9002788463846039B0C9AFCF70A
:103F30008BFA5A46019BFCF787FA029B009AFCF722
:103F400083FA2A46079BFCF782FA02460020069075
:103F500005986C4DAAF10103184301D1734D0690E9
:103F600000200B46049030462146FCF773FA824647
:103F70008B46234630461946049AFCF765FA3A46C2
:103F80004346FCF767FA52465B46FCF7BCF9064627
:103F90008A463A46434621460498FCF75BFA0446B3
:103FA0000F4632465346FCF7AEF9614A8B469142C2
:103FB00021DBABEB020353EA000210D122463B4661
:103FC000FCF742FA804603915A4A5B4B3046514611
:103FD000FCF799F94246039BFCF796FC27D2022096
:103FE000FEF744FFFEF722FF0A46294614B062F3AB
:103FF0001E01BDE8F08D514B2BF000429A4216D3C2
:104000004F4A0BEB020353EA000208D122463B461B
:10401000FCF71AFA32465346FCF776FC07D8022022
:10402000FEF724FFFEF70AFF0A462946DEE72BF0DB
:1040300000404449444A01EB20514FF000088242BD
:1040400023DA481C4FF4801121FA00F058443F4A0B
:10405000C0F30A517A443E4BA1F2FF31CB4020EA33
:104060000303C0F3130040F4801CC1F11400126874
:104070002CFA00F8BBF1000FB8BFC8F100082046C9
:104080003946FCF7E1F904460F4622463B463046E6
:104090005146FCF738F94FF0000B5A462D4B584665
:1040A0000391FCF7D7F900910A902B4A2B4B584605
:1040B0000399FCF7CFF90491029022463B465846FB
:1040C0000399FCF7C1F932465346FCF7C0F9244A7C
:1040D000244BFCF7BFF9049B029AFCF714F907463E
:1040E0008A46009B0A9AFCF70EF904460E46009B8E
:1040F0000A9AFCF7A9F93A465346FCF7A8F933E0C7
:10410000660700000000F03FA4070000D40600008E
:104110000000084009C7EE3FFD033ADCF5015B14DF
:10412000E02F3EBEAC050000720500000000F0BFAD
:1041300000009040FE822B654715973C00CC9040D4
:1041400000346F3F01FCFFFF0000E03FA0040000CF
:10415000FFFF0F00432EE63F396CA80C615C20BEC8
:10416000EF39FAFE422EE63F0746224633460F91CC
:1041700010461946FCF76EF9834602462E488A46D9
:104180000B4605217844FEF7ECFD5A465346FCF7F2
:1041900061F922463346FCF75AF982468B463A4685
:1041A000204631460F9BFCF755F93A460F9BFCF72A
:1041B000AAF80F460A9000224FF080435046594615
:1041C000FCF742F90391009052465B462046314687
:1041D000FCF740F9039B009AFCF7AEF93B460A9ABC
:1041E000FCF732F922463346FCF72EF90022134B36
:1041F000FCF72DF90E46044601EB0851081500287E
:1042000010DC424620463146FCF767FBFEF795FD81
:10421000042808BFFEF712FE424620463146FCF74E
:104220005CFB044606980B4614B022462946BDE8BE
:10423000F04DFCF70FB90000480300000000F03F0C
:104240002DE9F05F00240025002600274B494C484B
:104250000068FBF7E8FF4B490860084601684A48D8
:104260000068FBF7DAFF0446484801682046FCF77F
:1042700065FA02D24FF0010901E04FF0000943480E
:10428000006880F0004821464046FCF757FA01D20A
:10429000012000E0002049EA0009B9F1000F01D037
:1042A000002700E001273A490878FCF7BDF981466C
:1042B0002146FBF7B8FF80463649FBF7E6FF054687
:1042C0003846FCF7A8F9824631494878FCF7ACF942
:1042D00083463149FBF7D9FF81462146FBF7A3FF0F
:1042E00080465146FBF79FFF064631462B48006843
:1042F000FBF741FF29490860294801682748006801
:10430000FCF71CFA04D226480068244908600FE034
:104310002348006880F00048204801684046FCF7C8
:104320000DFA05D21E48006880F000401B49086065
:104330001A4801682846FBF71EFF1A4908601A4808
:10434000016818480068FCF7F9F904D216480068BB
:10435000144908600FE01448006880F000481148D4
:1043600001684046FCF7EAF905D20F48006880F082
:1043700000400C490860BDE8F09F00000000A0412B
:10438000E8000020E4000020B8000020C800002061
:10439000480100200000C84200007A44EC000020E0
:1043A000C4000020F0000020CC0000202DE9F041E6
:1043B00006460F46FCF7D2FA04000D4618BF01204E
:1043C000284320F00040C0F17F6000F1E040C00FC2
:1043D0000ED0301C18BF0120384320F00040C0F13F
:1043E0007F6000F1E040C00F04BF0120FEF73EFDFA
:1043F00020462946BDE8F08170B504460D4604E02C
:1044000021780448FEF78AFC641C2800A5F1010508
:10441000F6D170BD003801400149088070470000A6
:104420003C040040014908807047000040040040FF
:104430000149088070470000380400407CB50446FC
:104440000D4609A00068019008A0006800900221B4
:1044500001A8FFF7D1FF29462046FFF7CDFF022133
:104460006846FFF7C9FF7CBD03FC0000FC030000A9
:10447000000000000000F03F000000000000F83FD6
:1044800000000000000000000000004003B8E23F10
:10449000000000000000000006D0CF43EBFD4C3EC2
:1044A000033333333333E33FFFAB6FDBB66DDB3FB7
:1044B0004D268F515555D53F01411DA96074D13FFF
:1044C00065DBC9934A86CD3FEF4E454A287ECA3FF9
:1044D0003E5555555555C53F93BDBE166CC166BF7B
:1044E0002CDE25AF6A56113FF16BD2C541BDBBBE74
:1044F000D0A4BE726937663E0000000000000000D4
:10450000204500080000002050010000FE090008BE
:10451000C445000850010020800C00005C2E0008FB
:104520001184A24A04680901020304060708090C61
:104530006910051A020406084027E603E603E503AE
:10454000E403E303E103DE03DA03D503CD03C10390
:10455000B003990376034503FE029702040231017A
:104560001C3101040E1CFE02451A1A99221AC12A96
:104570001AD5321ADE3A1AE3421AE54A032CE60348
:104580002380401AA00423664323C8421A900C1BC0
:10459000C84118223F1A16141A96041AE104011F82
:1045A0003C180140A119085A02085A040839F9199F
:1045B000085A10085A20081969390872803C040505
:0445C000194300009B
:0400000508000131BD
:00000001FF
